{
  "contractName": "dBank",
  "abi": [
    {
      "inputs": [
        {
          "internalType": "contract Token",
          "name": "_token",
          "type": "address"
        }
      ],
      "stateMutability": "nonpayable",
      "type": "constructor"
    },
    {
      "anonymous": false,
      "inputs": [
        {
          "indexed": true,
          "internalType": "address",
          "name": "user",
          "type": "address"
        },
        {
          "indexed": false,
          "internalType": "uint256",
          "name": "etherAmount",
          "type": "uint256"
        },
        {
          "indexed": false,
          "internalType": "uint256",
          "name": "timestart",
          "type": "uint256"
        }
      ],
      "name": "Deposit",
      "type": "event"
    },
    {
      "anonymous": false,
      "inputs": [
        {
          "indexed": true,
          "internalType": "address",
          "name": "user",
          "type": "address"
        },
        {
          "indexed": false,
          "internalType": "uint256",
          "name": "etherAmount",
          "type": "uint256"
        },
        {
          "indexed": false,
          "internalType": "uint256",
          "name": "depositTime",
          "type": "uint256"
        },
        {
          "indexed": false,
          "internalType": "uint256",
          "name": "interest",
          "type": "uint256"
        }
      ],
      "name": "Withdraw",
      "type": "event"
    },
    {
      "inputs": [
        {
          "internalType": "address",
          "name": "",
          "type": "address"
        }
      ],
      "name": "balanceOf",
      "outputs": [
        {
          "internalType": "uint256",
          "name": "",
          "type": "uint256"
        }
      ],
      "stateMutability": "view",
      "type": "function"
    },
    {
      "inputs": [
        {
          "internalType": "address",
          "name": "",
          "type": "address"
        }
      ],
      "name": "depositStart",
      "outputs": [
        {
          "internalType": "uint256",
          "name": "",
          "type": "uint256"
        }
      ],
      "stateMutability": "view",
      "type": "function"
    },
    {
      "inputs": [
        {
          "internalType": "address",
          "name": "",
          "type": "address"
        }
      ],
      "name": "etherBalanceOf",
      "outputs": [
        {
          "internalType": "uint256",
          "name": "",
          "type": "uint256"
        }
      ],
      "stateMutability": "view",
      "type": "function"
    },
    {
      "inputs": [
        {
          "internalType": "address",
          "name": "",
          "type": "address"
        }
      ],
      "name": "isDeposited",
      "outputs": [
        {
          "internalType": "bool",
          "name": "",
          "type": "bool"
        }
      ],
      "stateMutability": "view",
      "type": "function"
    },
    {
      "inputs": [],
      "name": "deposit",
      "outputs": [],
      "stateMutability": "payable",
      "type": "function"
    },
    {
      "inputs": [],
      "name": "withdraw",
      "outputs": [],
      "stateMutability": "payable",
      "type": "function"
    },
    {
      "inputs": [],
      "name": "borrow",
      "outputs": [],
      "stateMutability": "payable",
      "type": "function"
    },
    {
      "inputs": [],
      "name": "payoff",
      "outputs": [],
      "stateMutability": "payable",
      "type": "function"
    }
  ],
  "bytecode": "0x608060405234801561001057600080fd5b50604051610df0380380610df08339818101604052810190610032919061008d565b806000806101000a81548173ffffffffffffffffffffffffffffffffffffffff021916908373ffffffffffffffffffffffffffffffffffffffff1602179055505061011a565b60008151905061008781610103565b92915050565b6000602082840312156100a3576100a26100fe565b5b60006100b184828501610078565b91505092915050565b60006100c5826100de565b9050919050565b60006100d7826100ba565b9050919050565b600073ffffffffffffffffffffffffffffffffffffffff82169050919050565b600080fd5b61010c816100cc565b811461011757600080fd5b50565b610cc7806101296000396000f3fe60806040526004361061007b5760003560e01c806395fcd8361161004e57806395fcd83614610141578063d0e30db01461014b578063e68d356914610155578063ff87930a1461015f5761007b565b8063179fc99f146100805780633ccfd60b146100bd57806370a08231146100c75780637373202414610104575b600080fd5b34801561008c57600080fd5b506100a760048036038101906100a29190610800565b61019c565b6040516100b49190610967565b60405180910390f35b6100c56101b4565b005b3480156100d357600080fd5b506100ee60048036038101906100e99190610800565b610564565b6040516100fb9190610967565b60405180910390f35b34801561011057600080fd5b5061012b60048036038101906101269190610800565b61057c565b60405161013891906108ec565b60405180910390f35b61014961059c565b005b61015361059e565b005b61015d6107d1565b005b34801561016b57600080fd5b5061018660048036038101906101819190610800565b6107d3565b6040516101939190610967565b60405180910390f35b60016020528060005260406000206000915090505481565b60011515600360003373ffffffffffffffffffffffffffffffffffffffff1673ffffffffffffffffffffffffffffffffffffffff16815260200190815260200160002060009054906101000a900460ff16151514610247576040517f08c379a000000000000000000000000000000000000000000000000000000000815260040161023e90610907565b60405180910390fd5b6000600160003373ffffffffffffffffffffffffffffffffffffffff1673ffffffffffffffffffffffffffffffffffffffff1681526020019081526020016000205490506000600260003373ffffffffffffffffffffffffffffffffffffffff1673ffffffffffffffffffffffffffffffffffffffff16815260200190815260200160002054426102d89190610ad4565b90506000662386f26fc10000836102ef9190610a49565b623052516102fd9190610a7a565b90506000828261030d9190610a7a565b905083600460003373ffffffffffffffffffffffffffffffffffffffff1673ffffffffffffffffffffffffffffffffffffffff1681526020019081526020016000205461035a91906109f3565b600460003373ffffffffffffffffffffffffffffffffffffffff1673ffffffffffffffffffffffffffffffffffffffff1681526020019081526020016000208190555060008054906101000a900473ffffffffffffffffffffffffffffffffffffffff1673ffffffffffffffffffffffffffffffffffffffff166340c10f1933836040518363ffffffff1660e01b81526004016103f89291906108c3565b600060405180830381600087803b15801561041257600080fd5b505af1158015610426573d6000803e3d6000fd5b505050506000600260003373ffffffffffffffffffffffffffffffffffffffff1673ffffffffffffffffffffffffffffffffffffffff168152602001908152602001600020819055506000600160003373ffffffffffffffffffffffffffffffffffffffff1673ffffffffffffffffffffffffffffffffffffffff168152602001908152602001600020819055506000600360003373ffffffffffffffffffffffffffffffffffffffff1673ffffffffffffffffffffffffffffffffffffffff16815260200190815260200160002060006101000a81548160ff0219169083151502179055503373ffffffffffffffffffffffffffffffffffffffff167f02f25270a4d87bea75db541cdfe559334a275b4a233520ed6c0a2429667cca94858584604051610556939291906109ab565b60405180910390a250505050565b60046020528060005260406000206000915090505481565b60036020528060005260406000206000915054906101000a900460ff1681565b565b60001515600360003373ffffffffffffffffffffffffffffffffffffffff1673ffffffffffffffffffffffffffffffffffffffff16815260200190815260200160002060009054906101000a900460ff16151514610631576040517f08c379a000000000000000000000000000000000000000000000000000000000815260040161062890610947565b60405180910390fd5b662386f26fc1000034101561067b576040517f08c379a000000000000000000000000000000000000000000000000000000000815260040161067290610927565b60405180910390fd5b34600160003373ffffffffffffffffffffffffffffffffffffffff1673ffffffffffffffffffffffffffffffffffffffff16815260200190815260200160002060008282546106ca91906109f3565b9250508190555042600260003373ffffffffffffffffffffffffffffffffffffffff1673ffffffffffffffffffffffffffffffffffffffff168152602001908152602001600020600082825461072091906109f3565b925050819055506001600360003373ffffffffffffffffffffffffffffffffffffffff1673ffffffffffffffffffffffffffffffffffffffff16815260200190815260200160002060006101000a81548160ff0219169083151502179055503373ffffffffffffffffffffffffffffffffffffffff167f90890809c654f11d6e72a28fa60149770a0d11ec6c92319d6ceb2bb0a4ea1a1534426040516107c7929190610982565b60405180910390a2565b565b60026020528060005260406000206000915090505481565b6000813590506107fa81610c7a565b92915050565b60006020828403121561081657610815610bae565b5b6000610824848285016107eb565b91505092915050565b61083681610b08565b82525050565b61084581610b1a565b82525050565b60006108586030836109e2565b915061086382610bb3565b604082019050919050565b600061087b6021836109e2565b915061088682610c02565b604082019050919050565b600061089e601d836109e2565b91506108a982610c51565b602082019050919050565b6108bd81610b46565b82525050565b60006040820190506108d8600083018561082d565b6108e560208301846108b4565b9392505050565b6000602082019050610901600083018461083c565b92915050565b600060208201905081810360008301526109208161084b565b9050919050565b600060208201905081810360008301526109408161086e565b9050919050565b6000602082019050818103600083015261096081610891565b9050919050565b600060208201905061097c60008301846108b4565b92915050565b600060408201905061099760008301856108b4565b6109a460208301846108b4565b9392505050565b60006060820190506109c060008301866108b4565b6109cd60208301856108b4565b6109da60408301846108b4565b949350505050565b600082825260208201905092915050565b60006109fe82610b46565b9150610a0983610b46565b9250827fffffffffffffffffffffffffffffffffffffffffffffffffffffffffffffffff03821115610a3e57610a3d610b50565b5b828201905092915050565b6000610a5482610b46565b9150610a5f83610b46565b925082610a6f57610a6e610b7f565b5b828204905092915050565b6000610a8582610b46565b9150610a9083610b46565b9250817fffffffffffffffffffffffffffffffffffffffffffffffffffffffffffffffff0483118215151615610ac957610ac8610b50565b5b828202905092915050565b6000610adf82610b46565b9150610aea83610b46565b925082821015610afd57610afc610b50565b5b828203905092915050565b6000610b1382610b26565b9050919050565b60008115159050919050565b600073ffffffffffffffffffffffffffffffffffffffff82169050919050565b6000819050919050565b7f4e487b7100000000000000000000000000000000000000000000000000000000600052601160045260246000fd5b7f4e487b7100000000000000000000000000000000000000000000000000000000600052601260045260246000fd5b600080fd5b7f4572726f722c206465706f7369742073686f756c6420626520646f6e6520626560008201527f666f7265207769746864726177696e6700000000000000000000000000000000602082015250565b7f4572726f722c206465706f736974206d7573742062653e3d20302e303120455460008201527f4800000000000000000000000000000000000000000000000000000000000000602082015250565b7f4572726f722c206465706f73697420616c726561647920616374697665000000600082015250565b610c8381610b08565b8114610c8e57600080fd5b5056fea2646970667358221220c85b3b6b52ef88a1d499c70771fe7f47fa5128d5b3fed90b2a2abe2377c98b4464736f6c63430008070033",
  "immutableReferences": {},
  "source": "// SPDX-License-Identifier: MIT\npragma solidity ^0.8.6;\n\n\nimport \"./Token.sol\";\n\ncontract dBank {\n\n    //Assign Imported Contract to Variable\n    Token private token;\n\n    //Mapping\n    mapping(address => uint) public etherBalanceOf;\n    mapping(address => uint) public depositStart;\n    mapping(address => bool) public isDeposited;\n    mapping(address => uint256) public balanceOf;\n\n    //events\n    event Deposit(address indexed user, uint etherAmount, uint timestart);\n    event Withdraw(address indexed user, uint etherAmount, uint depositTime, uint interest);\n    constructor(Token _token)  {\n        token = _token;\n    }\n\n    function deposit() payable public {\n        // check if deposit is active or not\n        require(isDeposited[msg.sender] == false, 'Error, deposit already active');\n        require(msg.value >= 1e16, 'Error, deposit must be>= 0.01 ETH');\n        \n        //Deposit balace Deducted From Account\n        etherBalanceOf[msg.sender] += msg.value;\n        depositStart[msg.sender] += block.timestamp; \n\n        isDeposited[msg.sender] = true;\n        emit Deposit(msg.sender, msg.value, block.timestamp);\n\n    }\n    function withdraw() payable public  {\n        require(isDeposited[msg.sender] ==true, 'Error, deposit should be done before withdrawing');\n        uint userBalance = etherBalanceOf[msg.sender];\n\n        //check user's hodl time\n        uint depositTime = block.timestamp - depositStart[msg.sender];\n\n        //31668017 - interest(10% APY) per second for min. deposit amount (0.01 ETH), cuz:\n        //1e15(10% of 0.01 ETH) / 31577600 (seconds in 365.25 days)\n\n        //(etherBalanceOf[msg.sender] / 1e16) - calc. how much higher interest will be (based on deposit), e.g.:\n        //for min. deposit (0.01 ETH), (etherBalanceOf[msg.sender] / 1e16) = 1 (the same, 31668017/s)\n        //for deposit 0.02 ETH, (etherBalanceOf[msg.sender] / 1e16) = 2 (doubled, (2*31668017)/s)\n\n        uint interestPerSecond = 3166801 * (userBalance / 1e16);\n        uint interest = interestPerSecond * depositTime;\n\n        balanceOf[msg.sender] = balanceOf[msg.sender] + userBalance;\n\n        // msg.sender.transfer(msg.sender, userBalance); \n        token.mint(msg.sender, interest);\n\n        // reset values\n        depositStart[msg.sender] = 0;\n        etherBalanceOf[msg.sender] = 0;\n        isDeposited[msg.sender] = false;\n\n        // emit logs\n        emit Withdraw(msg.sender, userBalance, depositTime, interest);\n\n    }\n    function borrow() payable public {\n\n    }\n    function payoff() payable public {\n\n    }\n}",
  "sourcePath": "/home/vikas/Desktop/git/defi/Defi_Apps/Db_bank/contracts/dBank.sol",
  "compiler": {
    "name": "solc",
    "version": "0.8.7+commit.e28d00a7.Emscripten.clang"
  },
  "schemaVersion": "3.4.3",
  "updatedAt": "2021-08-25T02:09:20.757Z",
  "networkType": "ethereum",
  "devdoc": {
    "kind": "dev",
    "methods": {},
    "version": 1
  },
  "userdoc": {
    "kind": "user",
    "methods": {},
    "version": 1
  }
}